:100000000C9462000C948A000C948A000C948A0070
:100010000C948A000C948A000C948A000C948A0038
:100020000C948A000C948A000C948A000C948A0028
:100030000C948A000C948A000C948A000C948A0018
:100040000C94DE030C948A000C944E040C94280447
:100050000C948A000C948A000C948A000C948A00F8
:100060000C948A000C948A000000000025002800EF
:100070002B0000000000240027002A0000000000E0
:1000800023002600290004040404040404040202DA
:100090000202020203030303030301020408102007
:1000A0004080010204081020010204081020000012
:1000B0000008000201000003040700000000000027
:1000C0000000280611241FBECFEFD8E0DEBFCDBF51
:1000D00011E0A0E0B1E0EEEFFCE002C005900D926F
:1000E000A839B107D9F722E0A8E9B1E001C01D9213
:1000F000A437B207E1F710E0C2E6D0E004C02197D0
:10010000FE010E947706C136D107C9F70E9480041C
:100110000C947D060C940000833081F028F481302B
:1001200099F08230A9F008958730A9F08830C9F09D
:100130008430B1F4809180008F7D03C08091800075
:100140008F7780938000089584B58F7784BD08955C
:1001500084B58F7DFBCF8091B0008F778093B00006
:1001600008958091B0008F7DF9CFCF93DF93282F32
:1001700030E0F901E255FF4F8491F901E656FF4F57
:10018000D491F901EA57FF4FC491CC23A1F081111A
:100190000E948C00EC2FF0E0EE0FFF1FE458FF4FA1
:1001A000A591B491EC91ED2381E090E009F480E019
:1001B000DF91CF91089580E090E0FACFCF93DF9365
:1001C00090E0FC01E656FF4F24918A579F4FFC01B7
:1001D00084918823C9F090E0880F991FFC01EE58A4
:1001E000FF4FA591B491FC01E859FF4FC591D491FF
:1001F00061110DC09FB7F8948C91209582238C9348
:100200008881282328839FBFDF91CF910895623092
:1002100051F49FB7F8943C91822F809583238C935F
:10022000E8812E2BEFCF8FB7F894EC912E2B2C93E7
:100230008FBFEACF3FB7F8948091D3019091D4015A
:10024000A091D501B091D60126B5A89B05C02F3F3E
:1002500019F00196A11DB11D3FBFBA2FA92F982FEC
:100260008827BC01CD01620F711D811D911D42E0E7
:10027000660F771F881F991F4A95D1F70895AF928F
:10028000BF92CF92DF92EF92FF920F931F93CF9383
:10029000DF936C017B018B01040F151FEB015E01E5
:1002A000AE18BF08C017D10759F06991D601ED917A
:1002B000FC910190F081E02DC6010995892B79F719
:1002C000C501DF91CF911F910F91FF90EF90DF90CB
:1002D000CF90BF90AF900895FC01538D448D252F92
:1002E00030E0842F90E0821B930B541710F0CF96D0
:1002F000089501970895FC01918D828D981761F002
:10030000A28DAE0FBF2FB11D5D968C91928D9F5F18
:100310009F73928F90E008958FEF9FEF0895FC01F7
:10032000918D828D981731F0828DE80FF11D858DAA
:1003300090E008958FEF9FEF0895FC01918D228D3D
:10034000892F90E0805C9F4F821B91098F739927C2
:10035000089587ED91E00E949D0121E0892B09F429
:1003600020E0822F089580E090E0892B29F00E9400
:10037000A90181110C9400000895FC01A48DA80F1F
:10038000B92FB11DA35ABF4F2C91848D90E00196D7
:100390008F739927848FA689B7892C93A089B189F7
:1003A0008C91837080648C93938D848D981306C098
:1003B0000288F389E02D80818F7D80830895EF92FC
:1003C000FF920F931F93CF93DF93EC0181E0888F0F
:1003D0009B8D8C8D98131AC0E889F989808185FFDF
:1003E00015C09FB7F894EE89FF896083E889F98981
:1003F00080818370806480839FBF81E090E0DF9183
:10040000CF911F910F91FF90EF900895F62E0B8DD5
:1004100010E00F5F1F4F0F731127E02E8C8D8E1190
:100420000CC00FB607FCFACFE889F989808185FFF7
:10043000F5CFCE010E94BD01F1CFEB8DEC0FFD2F6A
:10044000F11DE35AFF4FF0829FB7F8940B8FEA89B2
:10045000FB8980818062CFCFCF93DF93EC01888DC1
:100460008823B9F0AA89BB89E889F9898C9185FD2F
:1004700003C0808186FD0DC00FB607FCF7CF8C91BD
:1004800085FFF2CF808185FFEDCFCE010E94BD01B7
:10049000E9CFDF91CF910895FC0101900020E9F7A9
:1004A0003197AF01481B590BBC0187ED91E00C94CB
:1004B0003F018F929F92AF92BF920F931F93CF9362
:1004C000DF93CDB7DEB7A1970FB6F894DEBF0FBEAE
:1004D000CDBF19A2423008F44AE08E010F5D1F4FD4
:1004E000842E912CB12CA12CA50194010E945506BB
:1004F000E62FB901CA01EA30F4F4E05DD801EE93C9
:100500008D01232B242B252B79F790E080E0109789
:1005100019F0CD010E944C02A1960FB6F894DEBFEF
:100520000FBECDBFDF91CF911F910F91BF90AF90C4
:100530009F908F900895E95CE1CFCF92DF92EF9288
:10054000FF92CF93DF936B017C016DE287ED91E029
:100550000E94DF01EC0166277727CB016C197D092A
:100560008E099F094AE00E9459028C0F9D1FDF915E
:10057000CF91FF90EF90DF90CF900895CF93DF93CE
:100580000E944C02EC0186E391E00E944C028C0F29
:100590009D1FDF91CF910895BC01990F880B990B96
:1005A00097FD0C949D024AE00C945902AF92BF92C1
:1005B000CF92DF92EF92FF920F931F93CF93DF932F
:1005C00008E911E0F801118215821482369621E0C3
:1005D000EE3CF207C1F731E3A32E31E0B32E48E938
:1005E000E42E41E0F42ED0E0C0E056E0C52ED50167
:1005F000DD905D0160E08D2D0E94DE008D2D0E945A
:10060000B500CC9EF001CD9EF00D1124E856FE4FB2
:10061000DF012C2D1D922A95E9F7D701DC92139664
:100620009C938E9312972196B6E0EB0EF11CC53089
:10063000D105E9F68DE2A82E81E0B82E98E9E92EE1
:1006400091E0F92EC5E0D0E026E0C22EF501D19070
:100650005F0160E08D2D0E94DE008D2D0E94B500AF
:10066000CC9EF001CD9EF00D1124E856FE4FDF0127
:100670002C2D1D922A95E9F7D7015E96DC925E97A4
:1006800091969C938E9390972196B6E0EB0EF11C79
:10069000C930D105D9F68FB7F894C090CF01D0906A
:1006A000D001E090D101F090D2018FBFBB24B39470
:1006B0002FB7F8948091CF019091D001A091D101F2
:1006C000B091D2012FBF8C199D09AE09BF09843F9B
:1006D0009140A105B105C0F4C8E9D1E088810E942C
:1006E000B5002A813B812817390741F0B9829B83E5
:1006F0008A838C819D8101969D838C832696F1E06F
:10070000CE3CDF0759F7D4CF89E391E00E94BE02C7
:10071000C8E9D1E0688170E090E080E04AE00E94A2
:10072000590287E491E00E944C026C817D81072E82
:10073000000C880B990B97FF35C00E949D0286E341
:1007400091E00E944C02269621E0CE3CD20711F7A0
:1007500086EB91E0E8E9F1E02181211127C036968E
:100760008E179F07C9F7C1E080EB91E0D8015F9633
:100770002C912223E9F00A5F1F4F80179107B1F7F0
:10078000CC23B1F089E491E00E94BE028C2FDF916E
:10079000CF911F910F91FF90EF90DF90CF90BF907E
:1007A000AF9008954AE00E945902C9CFC0E0DCCF63
:1007B0008CE591E00E94BE02C0E0E8CF1F920F924C
:1007C0000FB60F9211242F933F938F939F93AF9364
:1007D000BF938091CF019091D001A091D101B091B0
:1007E000D2013091CE0123E0230F2D3758F5019629
:1007F000A11DB11D2093CE018093CF019093D00114
:10080000A093D101B093D2018091D3019091D401F2
:10081000A091D501B091D6010196A11DB11D809383
:10082000D3019093D401A093D501B093D601BF9189
:10083000AF919F918F913F912F910F900FBE0F908D
:100840001F90189526E8230F0296A11DB11DD2CF47
:100850001F920F920FB60F9211242F933F934F9335
:100860005F936F937F938F939F93AF93BF93EF9318
:10087000FF9387ED91E00E94BD01FF91EF91BF9141
:10088000AF919F918F917F916F915F914F913F9128
:100890002F910F900FBE0F901F9018951F920F92DF
:1008A0000FB60F9211242F938F939F93EF93FF9383
:1008B000E091E701F091E8018081E091ED01F09194
:1008C000EE0182FD1BC090818091F0018F5F8F73DC
:1008D0002091F101821741F0E091F001F0E0E9523E
:1008E000FE4F958F8093F001FF91EF919F918F9133
:1008F0002F910F900FBE0F901F9018958081F4CF0D
:10090000789484B5826084BD84B5816084BD85B5EA
:10091000826085BD85B5816085BD80916E008160F6
:1009200080936E001092810080918100826080939C
:10093000810080918100816080938100809180009E
:100940008160809380008091B10084608093B100C9
:100950008091B00081608093B00080917A008460C3
:1009600080937A0080917A00826080937A008091EF
:100970007A00816080937A0080917A008068809309
:100980007A001092C100E091E701F091E80182E065
:100990008083E091E301F091E4011082E091E501B0
:1009A000F091E6018FEC80831092EF01E091EB0172
:1009B000F091EC0186E08083E091E901F091EA0199
:1009C000808180618083E091E901F091EA0180817A
:1009D00088608083E091E901F091EA01808180687C
:1009E0008083E091E901F091EA0180818F7D80832D
:1009F0008FEF80930001809301010E94D602811144
:100A00002AC082E691E00E94BE020E941A014B01B8
:100A10005C0120EDC22E27E0D22EE12CF12C0E94A9
:100A20001A01681979098A099B09683E7340810592
:100A30009105A8F321E0C21AD108E108F10888EE77
:100A4000880E83E0981EA11CB11CC114D104E104DE
:100A5000F10429F7D2CFC1E3D1E060E089910E948F
:100A6000DE00F1E0C633DF07C1F760E087E00E94F7
:100A7000DE0060E088E00E94DE0060E089E00E9425
:100A8000DE0060E08AE00E94DE0000E010E0EE247C
:100A9000EA9487ED91E00E949D01181619060CF06A
:100AA0005FC087ED91E00E947B01C82F682F87ED22
:100AB00091E00E94DF01C33279F463E287ED91E0B7
:100AC0000E94DF010115110521F30E94A90188236D
:100AD00001F30E940000DDCF44E151E080E0C93520
:100AE00009F06CC08BE691E00E94BE020E94D60223
:100AF000C1E3D1E062E089910E94DE0021E0C633CB
:100B0000D207C1F762E087E00E94DE0062E088E081
:100B10000E94DE0062E089E00E94DE0062E08AE07E
:100B20000E94DE00E0920001E09201018BE891E07A
:100B30000E944C0280910101082E000C990B0E942A
:100B4000CC0283E991E00E944C0280910001082EC2
:100B5000000C990B0E94CC0285E991E00E94BE0234
:100B6000D0E0C0E09DE2A92E91E0B92ED12CC12C9D
:100B7000F50181915F010E94B500811110C0809143
:100B80000101082E000C990BC817D90741F4809178
:100B90000001082E000C990BC816D90649F1FFEF89
:100BA000CF1ADF0A24E0C216D10411F762E0FE0179
:100BB000EF5CFE4F80810E94DE0044C030E020E008
:100BC000922FFA01E20FF31F6081C61761F02F5FC9
:100BD0003F4F25303105A1F74B5F5F4F8F5F84306A
:100BE00069F79FEF8FEF80930001909301019ECFF3
:100BF000FE01EF5CFE4FF08061E08F2D0E94DE0071
:100C00002F2D30E0F901E255FF4F8491F901E656AE
:100C1000FF4FF490F901EA57FF4FD490DD2091F097
:100C200081110E948C00ED2DF0E0EE0FFF1FE859BE
:100C3000FF4FA591B4918FB7F894EC91F094FE22F8
:100C4000FC928FBF2196C530D10509F08BCF3ACFEA
:100C5000E7EDF1E01382128288EE93E0A0E0B0E0CD
:100C600084839583A683B78386E091E09183808314
:100C700085EC90E09587848784EC90E09787868761
:100C800080EC90E0918B808B81EC90E0938B828B59
:100C900082EC90E0958B848B86EC90E0978B868B32
:100CA000118E128E138E148E0895A1E21A2EAA1B95
:100CB000BB1BFD010DC0AA1FBB1FEE1FFF1FA2170C
:100CC000B307E407F50720F0A21BB30BE40BF50B09
:100CD000661F771F881F991F1A9469F76095709592
:100CE000809590959B01AC01BD01CF010895EE0F59
:0E0CF000FF1F0590F491E02D0994F894FFCFBA
:100CFE00FFFF00000000DF013F016C012C029D018F
:100D0E007B018F012B464737382D42433334203930
:100D1E004131322044453536202023202007080952
:100D2E000A02030405060D0A004B6579626F6172B3
:100D3E00642074657374003A004576657279746840
:100D4E00696E67206973206F6B6179004552524F4F
:100D5E0052005265747279696E67004D616E7561ED
:100D6E006C206B6579626F61726420746573742098
:100D7E007472696767657265642E0020506F733AEE
:080D8E00205B002C005D000059
:00000001FF
