:100000000C9462000C948A000C948A000C948A0070
:100010000C948A000C948A000C948A000C948A0038
:100020000C948A000C948A000C948A000C948A0028
:100030000C948A000C948A000C948A000C948A0018
:100040000C941A040C948A000C948A040C94640492
:100050000C948A000C948A000C948A000C948A00F8
:100060000C948A000C948A000000000025002800EF
:100070002B0000000000240027002A0000000000E0
:1000800023002600290004040404040404040202DA
:100090000202020203030303030301020408102007
:1000A0004080010204081020010204081020000012
:1000B0000008000201000003040700000000000027
:1000C0000000450611241FBECFEFD8E0DEBFCDBF34
:1000D00011E0A0E0B1E0E8E3FDE002C005900D9280
:1000E000AC3AB107D9F722E0ACEAB1E001C01D9209
:1000F000AE37B207E1F710E0C2E6D0E004C02197C6
:10010000FE010E949406C136D107C9F70E94BC04C3
:100110000C949A060C940000833081F028F481300E
:1001200099F08230A9F008958730A9F08830C9F09D
:100130008430B1F4809180008F7D03C08091800075
:100140008F7780938000089584B58F7784BD08955C
:1001500084B58F7DFBCF8091B0008F778093B00006
:1001600008958091B0008F7DF9CFCF93DF93282F32
:1001700030E0F901E255FF4F8491F901E656FF4F57
:10018000D491F901EA57FF4FC491CC23A1F081111A
:100190000E948C00EC2FF0E0EE0FFF1FE458FF4FA1
:1001A000A591B491EC91ED2381E090E009F480E019
:1001B000DF91CF91089580E090E0FACFCF93DF9365
:1001C00090E0FC01E656FF4F24918A579F4FFC01B7
:1001D00084918823C9F090E0880F991FFC01EE58A4
:1001E000FF4FA591B491FC01E859FF4FC591D491FF
:1001F00061110DC09FB7F8948C91209582238C9348
:100200008881282328839FBFDF91CF910895623092
:1002100051F49FB7F8943C91822F809583238C935F
:10022000E8812E2BEFCF8FB7F894EC912E2B2C93E7
:100230008FBFEACF3FB7F8948091DD019091DE0146
:10024000A091DF01B091E00126B5A89B05C02F3F2A
:1002500019F00196A11DB11D3FBFBA2FA92F982FEC
:100260008827BC01CD01620F711D811D911D42E0E7
:10027000660F771F881F991F4A95D1F708958F92AF
:100280009F92AF92BF92CF92DF92EF92FF924B017B
:100290005C010E941A016B017C010E941A016C1919
:1002A0007D098E099F09683E734081059105A8F379
:1002B00021E0821A9108A108B10888EEC80E83E0F7
:1002C000D81EE11CF11C81149104A104B10429F78A
:1002D000FF90EF90DF90CF90BF90AF909F908F9066
:1002E0000895AF92BF92CF92DF92EF92FF920F9359
:1002F0001F93CF93DF936C017B018B01040F151FBC
:10030000EB015E01AE18BF08C017D10759F0699123
:10031000D601ED91FC910190F081E02DC601099587
:10032000892B79F7C501DF91CF911F910F91FF9034
:10033000EF90DF90CF90BF90AF900895FC01538D68
:10034000448D252F30E0842F90E0821B930B5417AF
:1003500010F0CF96089501970895FC01918D828D3C
:10036000981761F0A28DAE0FBF2FB11D5D968C91D5
:10037000928D9F5F9F73928F90E008958FEF9FEF14
:100380000895FC01918D828D981731F0828DE80FD0
:10039000F11D858D90E008958FEF9FEF0895FC018A
:1003A000918D228D892F90E0805C9F4F821B910957
:1003B0008F739927089581EE91E00E94CF0121E08B
:1003C000892B09F420E0822F089580E090E0892BAA
:1003D00029F00E94DB0181110C9400000895FC01BA
:1003E000A48DA80FB92FB11DA35ABF4F2C91848D96
:1003F00090E001968F739927848FA689B7892C93F3
:10040000A089B1898C91837080648C93938D848D45
:10041000981306C00288F389E02D80818F7D808348
:100420000895EF92FF920F931F93CF93DF93EC0108
:1004300081E0888F9B8D8C8D98131AC0E889F9898B
:10044000808185FF15C09FB7F894EE89FF8960838E
:10045000E889F98980818370806480839FBF81E00F
:1004600090E0DF91CF911F910F91FF90EF90089551
:10047000F62E0B8D10E00F5F1F4F0F731127E02E2C
:100480008C8D8E110CC00FB607FCFACFE889F98964
:10049000808185FFF5CFCE010E94EF01F1CFEB8D7A
:1004A000EC0FFD2FF11DE35AFF4FF0829FB7F89438
:1004B0000B8FEA89FB8980818062CFCFCF93DF9356
:1004C000EC01888D8823B9F0AA89BB89E889F9896C
:1004D0008C9185FD03C0808186FD0DC00FB607FCA1
:1004E000F7CF8C9185FFF2CF808185FFEDCFCE01D4
:1004F0000E94EF01E9CFDF91CF910895FC010190B7
:100500000020E9F73197AF01481B590BBC0181EE80
:1005100091E00C9471018F929F92AF92BF920F93D2
:100520001F93CF93DF93CDB7DEB7A1970FB6F894A3
:10053000DEBF0FBECDBF19A2423008F44AE08E01E3
:100540000F5D1F4F842E912CB12CA12CA50194017D
:100550000E947206E62FB901CA01EA30F4F4E05DA8
:10056000D801EE938D01232B242B252B79F790E0D6
:1005700080E0109719F0CD010E947E02A1960FB67F
:10058000F894DEBF0FBECDBFDF91CF911F910F91C9
:10059000BF90AF909F908F900895E95CE1CFCF928C
:1005A000DF92EF92FF92CF93DF936B017C016DE2BC
:1005B00081EE91E00E941102EC0166277727CB01C2
:1005C0006C197D098E099F094AE00E948B028C0FED
:1005D0009D1FDF91CF91FF90EF90DF90CF90089516
:1005E000CF93DF930E947E02EC0185E291E00E94AE
:1005F0007E028C0F9D1FDF91CF910895BC01990F52
:10060000880B990B97FD0C94CF024AE00C948B0257
:10061000AF92BF92CF92DF92EF92FF920F931F9310
:10062000CF93DF930CEA11E0F80111821582148256
:10063000369621E0E63DF207C1F732E2A32E31E023
:10064000B32E4CEAE42E41E0F42ED0E0C0E056E0B8
:10065000C52ED501DD905D0162E08D2D0E94DE008A
:100660008D2D0E94B500CC9EF001CD9EF00D112481
:10067000E455FE4FDF012C2D1D922A95E9F7D70195
:10068000DC9213969C938E9312972196B6E0EB0E14
:10069000F11CC330D105E9F68EE1A82E81E0B82E19
:1006A0009CEAE92E91E0F92EC3E0D0E026E0C22ECC
:1006B000F501D1905F0162E08D2D0E94DE008D2D4D
:1006C0000E94B500CC9EF001CD9EF00D1124E455A2
:1006D000FE4FDF012C2D1D922A95E9F7D701529686
:1006E000DC92529755969C938E9354972196B6E040
:1006F000EB0EF11CC730D105D9F68FB7F894C09036
:10070000D901D090DA01E090DB01F090DC018FBFDD
:10071000BB24B3942FB7F8948091D9019091DA015A
:10072000A091DB01B091DC012FBF8C199D09AE09AE
:10073000BF09843F9140A105B105F0F4CCEAD1E0B6
:1007400088810E94B5002A813B812817390741F032
:10075000B9829B838A838C819D8101969D838C8342
:100760002696F1E0C63DDF0759F762E370E080E0CE
:1007700090E00E943F01CECF88E291E00E94F0021B
:10078000CCEAD1E08EE391E00E947E02688170E0C5
:1007900090E080E04AE00E948B0283E491E00E94B6
:1007A0007E026C817D81072E000C880B990B97FFD0
:1007B00035C00E94CF0285E291E00E947E0226961B
:1007C00021E0C63DD207F1F6C091AD01C1112AC0AA
:1007D0008091B301811104C0C091B90181E0C827A3
:1007E00084EC91E0D80153962C912223E9F00A5F22
:1007F0001F4F80179107B1F7CC23B1F086E491E049
:100800000E94F0028C2FDF91CF911F910F91FF90EA
:10081000EF90DF90CF90BF90AF9008954AE00E9494
:100820008B02C9CFC0E0DCCF89E591E00E94F002E5
:10083000C0E0E8CF1F920F920FB60F9211242F93B2
:100840003F938F939F93AF93BF938091D9019091E2
:10085000DA01A091DB01B091DC013091D80123E0F5
:10086000230F2D3758F50196A11DB11D2093D801F6
:100870008093D9019093DA01A093DB01B093DC015E
:100880008091DD019091DE01A091DF01B091E00146
:100890000196A11DB11D8093DD019093DE01A0930F
:1008A000DF01B093E001BF91AF919F918F913F9194
:1008B0002F910F900FBE0F901F90189526E8230FD1
:1008C0000296A11DB11DD2CF1F920F920FB60F92AB
:1008D00011242F933F934F935F936F937F938F9345
:1008E0009F93AF93BF93EF93FF9381EE91E00E94AC
:1008F000EF01FF91EF91BF91AF919F918F917F9108
:100900006F915F914F913F912F910F900FBE0F907C
:100910001F9018951F920F920FB60F9211242F93CC
:100920008F939F93EF93FF93E091F101F091F20188
:100930008081E091F701F091F80182FD1BC0908168
:100940008091FA018F5F8F732091FB01821741F034
:10095000E091FA01F0E0EF51FE4F958F8093FA019C
:10096000FF91EF919F918F912F910F900FBE0F905C
:100970001F9018958081F4CF789484B5826084BDEF
:1009800084B5816084BD85B5826085BD85B5816093
:1009900085BD80916E00816080936E001092810011
:1009A00080918100826080938100809181008160CC
:1009B000809381008091800081608093800080918D
:1009C000B10084608093B1008091B0008160809319
:1009D000B00080917A00846080937A0080917A00E0
:1009E000826080937A0080917A00816080937A009F
:1009F00080917A00806880937A001092C100E09123
:100A0000F101F091F20182E08083E091ED01F0913B
:100A1000EE011082E091EF01F091F0018FEC808304
:100A20001092F901E091F501F091F60186E08083E2
:100A3000E091F301F091F401808180618083E09185
:100A4000F301F091F401808188608083E091F301EB
:100A5000F091F401808180688083E091F301F0914E
:100A6000F40180818F7D80830E940803C82E882333
:100A700009F4E1C060E08DE00E94DE0060E08EE0FD
:100A80000E94DE0060E08FE00E94DE0060E080E116
:100A90000E94DE0060E081E10E94DE0060E082E111
:100AA0000E94DE0060E083E10E94DE0020E0E22E92
:100AB00020E0F22EBB24BA9481EE91E00E94CF0197
:100AC000181619060CF050C081EE91E00E94AD019D
:100AD000C82F682F81EE91E00E941102E2E1F1E05F
:100AE00080E0C93509F0B2C08FE791E00E94F002C2
:100AF0000E94080360E08DE00E94DE0060E08EE06E
:100B00000E94DE0060E08FE00E94DE0060E080E195
:100B10000E94DE0060E081E10E94DE0060E082E190
:100B20000E94DE0060E083E10E94DE00B092D60108
:100B3000B092D7018FE991E00E947E028091D701A7
:100B4000082E000C990B0E94FE0287EA91E00E9499
:100B50007E028091D601082E000C990B0E94FE02A5
:100B600089EA91E00E94F00202E211E0D0E0C0E0E8
:100B70009EE1892E91E0992E712C612CA12CF4011B
:100B800081914F010E94B500811111C08091D70160
:100B9000082E000C990B8C179D0749F48091D60103
:100BA000082E000C990B6816790609F4AC2CFFEF9F
:100BB0006F1A7F0A84E06816710409F7F801D19072
:100BC0008F01AA2009F45CC061E08D2D0E94DE0037
:100BD0002D2D30E0F901E255FF4F8491F901E656E1
:100BE000FF4FD490F901EA57FF4FA490AA2091F04B
:100BF00081110E948C00EA2DF0E0EE0FFF1FE859F2
:100C0000FF4FA591B4918FB7F894EC91D094DE2268
:100C1000DC928FBF2196C330D10509F0A9CFE11432
:100C2000F10409F449CF0E94DB01882309F444CF81
:100C30000E94000041CF8FE591E00E94F00260ED3C
:100C400077E080E090E00E943F010ECF9081C917CD
:100C500061F09181C91759F09281C9130AC092E0DD
:100C60008093D6019093D70165CF90E0F9CF91E0C2
:100C7000F7CF33968F5F843049F79FEF8FEFF0CF38
:100C800060E08D2D0E94DE00C5CFE1EEF1E0138221
:100C9000128288EE93E0A0E0B0E084839583A6837F
:100CA000B78384E091E09183808385EC90E0958721
:100CB000848784EC90E09787868780EC90E0918B26
:100CC000808B81EC90E0938B828B82EC90E0958B13
:100CD000848B86EC90E0978B868B118E128E138E10
:100CE000148E0895A1E21A2EAA1BBB1BFD010DC094
:100CF000AA1FBB1FEE1FFF1FA217B307E407F507CC
:100D000020F0A21BB30BE40BF50B661F771F881FA7
:100D1000991F1A9469F760957095809590959B013D
:100D2000AC01BD01CF010895EE0FFF1F0590F491B6
:080D3000E02D0994F894FFCFB7
:100D380000000000110271019E015E02CF01AD01A9
:100D4800C10137383934353631323330455810110E
:100D580012130D0E0F0D0A003D3D3D204B657962C3
:100D68006F6172642074657374203D3D3D00506965
:100D78006E20003A200045766572797468696E675E
:100D8800206973206F6B6179004552524F520052AF
:100D980065747279696E67206B6579626F617264D8
:100DA80020636F6E6E656374696F6E2E2E2E004D14
:100DB800616E75616C206B6579626F617264207415
:100DC800657374207472696767657265642E0020A4
:0C0DD800506F733A205B002C005D00009F
:00000001FF
