:100000000C9462000C948A000C948A000C948A0070
:100010000C948A000C948A000C948A000C948A0038
:100020000C948A000C948A000C948A000C948A0028
:100030000C948A000C948A000C948A000C948A0018
:100040000C941A040C948A000C948A040C94640492
:100050000C948A000C948A000C948A000C948A00F8
:100060000C948A000C948A000000000025002800EF
:100070002B0000000000240027002A0000000000E0
:1000800023002600290004040404040404040202DA
:100090000202020203030303030301020408102007
:1000A0004080010204081020010204081020000012
:1000B0000008000201000003040700000000000027
:1000C00000003A0611241FBECFEFD8E0DEBFCDBF3F
:1000D00011E0A0E0B1E0E2E2FDE002C005900D9287
:1000E000A83EB107D9F722E0A8EEB1E001C01D9209
:1000F000A83EB207E1F710E0C2E6D0E004C02197C5
:10010000FE010E948906C136D107C9F70E94BC04CE
:100110000C948F060C940000833081F028F4813019
:1001200099F08230A9F008958730A9F08830C9F09D
:100130008430B1F4809180008F7D03C08091800075
:100140008F7780938000089584B58F7784BD08955C
:1001500084B58F7DFBCF8091B0008F778093B00006
:1001600008958091B0008F7DF9CFCF93DF93282F32
:1001700030E0F901E255FF4F8491F901E656FF4F57
:10018000D491F901EA57FF4FC491CC23A1F081111A
:100190000E948C00EC2FF0E0EE0FFF1FE458FF4FA1
:1001A000A591B491EC91ED2381E090E009F480E019
:1001B000DF91CF91089580E090E0FACFCF93DF9365
:1001C00090E0FC01E656FF4F24918A579F4FFC01B7
:1001D00084918823C9F090E0880F991FFC01EE58A4
:1001E000FF4FA591B491FC01E859FF4FC591D491FF
:1001F00061110DC09FB7F8948C91209582238C9348
:100200008881282328839FBFDF91CF910895623092
:1002100051F49FB7F8943C91822F809583238C935F
:10022000E8812E2BEFCF8FB7F894EC912E2B2C93E7
:100230008FBFEACF3FB7F894809147029091480270
:10024000A0914902B0914A0226B5A89B05C02F3F54
:1002500019F00196A11DB11D3FBFBA2FA92F982FEC
:100260008827BC01CD01620F711D811D911D42E0E7
:10027000660F771F881F991F4A95D1F708958F92AF
:100280009F92AF92BF92CF92DF92EF92FF924B017B
:100290005C010E941A016B017C010E941A016C1919
:1002A0007D098E099F09683E734081059105A8F379
:1002B00021E0821A9108A108B10888EEC80E83E0F7
:1002C000D81EE11CF11C81149104A104B10429F78A
:1002D000FF90EF90DF90CF90BF90AF909F908F9066
:1002E0000895AF92BF92CF92DF92EF92FF920F9359
:1002F0001F93CF93DF936C017B018B01040F151FBC
:10030000EB015E01AE18BF08C017D10759F0699123
:10031000D601ED91FC910190F081E02DC601099587
:10032000892B79F7C501DF91CF911F910F91FF9034
:10033000EF90DF90CF90BF90AF900895FC01538D68
:10034000448D252F30E0842F90E0821B930B5417AF
:1003500010F0CF96089501970895FC01918D828D3C
:10036000981761F0A28DAE0FBF2FB11D5D968C91D5
:10037000928D9F5F9F73928F90E008958FEF9FEF14
:100380000895FC01918D828D981731F0828DE80FD0
:10039000F11D858D90E008958FEF9FEF0895FC018A
:1003A000918D228D892F90E0805C9F4F821B910957
:1003B0008F73992708958BE492E00E94CF0121E08A
:1003C000892B09F420E0822F089580E090E0892BAA
:1003D00029F00E94DB0181110C9400000895FC01BA
:1003E000A48DA80FB92FB11DA35ABF4F2C91848D96
:1003F00090E001968F739927848FA689B7892C93F3
:10040000A089B1898C91837080648C93938D848D45
:10041000981306C00288F389E02D80818F7D808348
:100420000895EF92FF920F931F93CF93DF93EC0108
:1004300081E0888F9B8D8C8D98131AC0E889F9898B
:10044000808185FF15C09FB7F894EE89FF8960838E
:10045000E889F98980818370806480839FBF81E00F
:1004600090E0DF91CF911F910F91FF90EF90089551
:10047000F62E0B8D10E00F5F1F4F0F731127E02E2C
:100480008C8D8E110CC00FB607FCFACFE889F98964
:10049000808185FFF5CFCE010E94EF01F1CFEB8D7A
:1004A000EC0FFD2FF11DE35AFF4FF0829FB7F89438
:1004B0000B8FEA89FB8980818062CFCFCF93DF9356
:1004C000EC01888D8823B9F0AA89BB89E889F9896C
:1004D0008C9185FD03C0808186FD0DC00FB607FCA1
:1004E000F7CF8C9185FFF2CF808185FFEDCFCE01D4
:1004F0000E94EF01E9CFDF91CF910895FC010190B7
:100500000020E9F73197AF01481B590BBC018BE480
:1005100092E00C9471018F929F92AF92BF920F93D1
:100520001F93CF93DF93CDB7DEB7A1970FB6F894A3
:10053000DEBF0FBECDBF19A2423008F44AE08E01E3
:100540000F5D1F4F842E912CB12CA12CA50194017D
:100550000E946706E62FB901CA01EA30F4F4E05DB3
:10056000D801EE938D01232B242B252B79F790E0D6
:1005700080E0109719F0CD010E947E02A1960FB67F
:10058000F894DEBF0FBECDBFDF91CF911F910F91C9
:10059000BF90AF909F908F900895E95CE1CFCF928C
:1005A000DF92EF92FF92CF93DF936B017C016DE2BC
:1005B0008BE492E00E941102EC0166277727CB01C1
:1005C0006C197D098E099F094AE00E948B028C0FED
:1005D0009D1FDF91CF91FF90EF90DF90CF90089516
:1005E000CF93DF930E947E02EC0182E691E00E94AD
:1005F0007E028C0F9D1FDF91CF910895BC01990F52
:10060000880B990B97FD0C94CF024AE00C948B0257
:10061000AF92BF92CF92DF92EF92FF920F931F9310
:10062000CF93DF9308EE11E0F80111821582148256
:10063000369622E0E234F207C1F73AE5A32E31E024
:10064000B32E48EEE42E41E0F42ED0E0C0E056E0B8
:10065000C52ED501DD905D0162E08D2D0E94DE008A
:100660008D2D0E94B500CC9EF001CD9EF00D112481
:10067000E851FE4FDF012C2D1D922A95E9F7D70195
:10068000DC9213969C938E9312972196B6E0EB0E14
:10069000F11CC830D105E9F683E5A82E81E0B82E1B
:1006A00098EEE92E91E0F92EC8E0D0E026E0C22EC7
:1006B000F501D1905F0162E08D2D0E94DE008D2D4D
:1006C0000E94B500CC9EF001CD9EF00D1124E851A2
:1006D000FE4FDF012C2D1D922A95E9F7D701D09608
:1006E000DC92D097D3969C938E93D2972196B6E0C6
:1006F000EB0EF11CCF30D105D9F68FB7F894C0902E
:100700004302D0904402E0904502F09046028FBF31
:10071000BB24B3942FB7F894809143029091440284
:10072000A0914502B09146022FBF8C199D09AE09D8
:10073000BF09843F9140A105B105F0F4C8EED1E0B6
:1007400088810E94B5002A813B812817390741F032
:10075000B9829B838A838C819D8101969D838C8342
:100760002696F2E0C234DF0759F762E370E080E0DA
:1007700090E00E943F01CECF85E691E00E94F0021A
:10078000C8EED1E08BE791E00E947E02688170E0C4
:1007900090E080E04AE00E948B0280E891E00E94B5
:1007A0007E026C817D81072E000C880B990B97FFD0
:1007B00035C00E94CF0282E691E00E947E0226961A
:1007C00022E0C234D207F1F688E192E0E8EEF1E0EF
:1007D0002181211127C036968E179F07C9F7C1E0E6
:1007E00082E192E0D801D1962C912223E9F00A5FB0
:1007F0001F4F80179107B1F7CC23B1F083E891E048
:100800000E94F0028C2FDF91CF911F910F91FF90EA
:10081000EF90DF90CF90BF90AF9008954AE00E9494
:100820008B02C9CFC0E0DCCF86E991E00E94F002E4
:10083000C0E0E8CF1F920F920FB60F9211242F93B2
:100840003F938F939F93AF93BF9380914302909177
:100850004402A0914502B09146023091420223E049
:10086000230F2D3758F50196A11DB11D209342028B
:100870008093430290934402A0934502B0934602B2
:100880008091470290914802A0914902B0914A029A
:100890000196A11DB11D8093470290934802A09339
:1008A0004902B0934A02BF91AF919F918F913F91BE
:1008B0002F910F900FBE0F901F90189526E8230FD1
:1008C0000296A11DB11DD2CF1F920F920FB60F92AB
:1008D00011242F933F934F935F936F937F938F9345
:1008E0009F93AF93BF93EF93FF938BE492E00E94AB
:1008F000EF01FF91EF91BF91AF919F918F917F9108
:100900006F915F914F913F912F910F900FBE0F907C
:100910001F9018951F920F920FB60F9211242F93CC
:100920008F939F93EF93FF93E0915B02F0915C02B2
:100930008081E0916102F091620282FD1BC0908192
:10094000809164028F5F8F7320916502821741F05E
:10095000E0916402F0E0E55BFD4F958F80936402C7
:10096000FF91EF919F918F912F910F900FBE0F905C
:100970001F9018958081F4CF789484B5826084BDEF
:1009800084B5816084BD85B5826085BD85B5816093
:1009900085BD80916E00816080936E001092810011
:1009A00080918100826080938100809181008160CC
:1009B000809381008091800081608093800080918D
:1009C000B10084608093B1008091B0008160809319
:1009D000B00080917A00846080937A0080917A00E0
:1009E000826080937A0080917A00816080937A009F
:1009F00080917A00806880937A001092C100E09123
:100A00005B02F0915C0282E08083E0915702F091FA
:100A100058021082E0915902F0915A028FEC8083C3
:100A200010926302E0915F02F091600286E08083A1
:100A3000E0915D02F0915E02808180618083E091AF
:100A40005D02F0915E02808188608083E0915D02AA
:100A5000F0915E02808180688083E0915D02F09178
:100A60005E0280818F7D80830E940803C82E8111E1
:100A70000BC08CE991E00E94F00260ED77E080E02D
:100A800090E00E943F01F0CFCAE5D1E060E089919B
:100A90000E94DE0081E0C236D807C1F7C3E5D1E08D
:100AA00060E089910E94DE00E1E0CA35DE07C1F70F
:100AB00020E0E22E20E0F22EBB24BA948BE492E0F8
:100AC0000E94CF01181619060CF059C08BE492E071
:100AD0000E94AD01C82F682F8BE492E00E941102A2
:100AE000C33279F463E28BE492E00E941102E114D4
:100AF000F10421F30E94DB01882301F30E9400002E
:100B0000DDCF44E151E080E0C93509F094C08CEBC1
:100B100091E00E94F0020E940803CAE5D1E060E083
:100B200089910E94DE00F1E0C236DF07C1F7C3E51C
:100B3000D1E060E089910E94DE0081E0CA35D807EB
:100B4000C1F7B0920001B09201018CED91E00E94DA
:100B50007E0280910101082E000C990B0E94FE027A
:100B600084EE91E00E947E0280910001082E000C2C
:100B7000990B0E94FE0286EE91E00E94F0020AE5C7
:100B800011E0D0E0C0E093E5892E91E0992E712C20
:100B9000612CA12CF40181914F010E94B5008111BB
:100BA00011C080910101082E000C990B8C179D0734
:100BB00049F480910001082E000C990B6816790603
:100BC00009F4AC2CFFEF6F1A7F0A87E068167104F6
:100BD00009F7F801D1908F01AA2009F446C061E01D
:100BE0008D2D0E94DE002D2D30E0F901E255FF4FE2
:100BF0008491F901E656FF4FD490F901EA57FF4F6F
:100C0000A490AA2091F081110E948C00EA2DF0E0BE
:100C1000EE0FFF1FE859FF4FA591B4918FB7F894DD
:100C2000EC91D094DE22DC928FBF2196C830D105A2
:100C300009F0A9CF5CCF30E020E0922FFA01E20F5B
:100C4000F31F6081C61761F02F5F3F4F29303105D8
:100C5000A1F7475F5F4F8F5F873069F79FEF8FEF97
:100C6000809300019093010170CF60E08D2D0E9470
:100C7000DE00DBCFEBE4F2E01382128288EE93E039
:100C8000A0E0B0E084839583A683B78386E091E0FB
:100C90009183808385EC90E09587848784EC90E055
:100CA0009787868780EC90E0918B808B81EC90E039
:100CB000938B828B82EC90E0958B848B86EC90E01A
:100CC000978B868B118E128E138E148E0895A1E24F
:100CD0001A2EAA1BBB1BFD010DC0AA1FBB1FEE1FB6
:100CE000FF1FA217B307E407F50720F0A21BB30B01
:100CF000E40BF50B661F771F881F991F1A9469F77D
:100D000060957095809590959B01AC01BD01CF01D8
:100D10000895EE0FFF1F0590F491E02D0994F894CB
:020D2000FFCF03
:100D2200FFFF00000000110271019E015E02CF016F
:100D3200AD01C1012B2D2020202020202020204782
:100D420048492020202020204142432020202020EA
:100D520020464544202020202020202020373839DA
:100D62002020202020203132332020202020203635
:100D72003534200708090A11121302030405060E6E
:100D82000F100D0A003D3D3D204B6579626F617287
:100D9200642074657374203D3D3D0050696E2000EF
:100DA2003A200045766572797468696E67206973C6
:100DB200206F6B6179004552524F52005265747236
:100DC20079696E67206B6579626F61726420636F07
:100DD2006E6E656374696F6E2E2E2E004D616E7598
:100DE200616C206B6579626F6172642074657374E3
:100DF200207472696767657265642E0020506F7394
:080E02003A205B002C005D00AA
:00000001FF
